{
  "address": "0x706861401eb7bbdd00A57d82E34D3519B2Ea26Ea",
  "abi": [
    {
      "inputs": [],
      "name": "InvalidInitialization",
      "type": "error"
    },
    {
      "inputs": [
        {
          "internalType": "uint256",
          "name": "amount",
          "type": "uint256"
        },
        {
          "internalType": "uint256",
          "name": "minAmount",
          "type": "uint256"
        }
      ],
      "name": "NotEnoughAmount",
      "type": "error"
    },
    {
      "inputs": [],
      "name": "NotInitializing",
      "type": "error"
    },
    {
      "inputs": [
        {
          "internalType": "address",
          "name": "owner",
          "type": "address"
        }
      ],
      "name": "OwnableInvalidOwner",
      "type": "error"
    },
    {
      "inputs": [
        {
          "internalType": "address",
          "name": "account",
          "type": "address"
        }
      ],
      "name": "OwnableUnauthorizedAccount",
      "type": "error"
    },
    {
      "anonymous": false,
      "inputs": [
        {
          "indexed": true,
          "internalType": "address",
          "name": "sender",
          "type": "address"
        },
        {
          "indexed": true,
          "internalType": "address",
          "name": "stableReceiver",
          "type": "address"
        },
        {
          "indexed": true,
          "internalType": "address",
          "name": "to",
          "type": "address"
        },
        {
          "indexed": false,
          "internalType": "uint256",
          "name": "amount",
          "type": "uint256"
        }
      ],
      "name": "Forward",
      "type": "event"
    },
    {
      "anonymous": false,
      "inputs": [
        {
          "indexed": false,
          "internalType": "uint64",
          "name": "version",
          "type": "uint64"
        }
      ],
      "name": "Initialized",
      "type": "event"
    },
    {
      "anonymous": false,
      "inputs": [
        {
          "indexed": true,
          "internalType": "address",
          "name": "previousOwner",
          "type": "address"
        },
        {
          "indexed": true,
          "internalType": "address",
          "name": "newOwner",
          "type": "address"
        }
      ],
      "name": "OwnershipTransferStarted",
      "type": "event"
    },
    {
      "anonymous": false,
      "inputs": [
        {
          "indexed": true,
          "internalType": "address",
          "name": "previousOwner",
          "type": "address"
        },
        {
          "indexed": true,
          "internalType": "address",
          "name": "newOwner",
          "type": "address"
        }
      ],
      "name": "OwnershipTransferred",
      "type": "event"
    },
    {
      "anonymous": false,
      "inputs": [
        {
          "indexed": true,
          "internalType": "address",
          "name": "stableReceiver",
          "type": "address"
        }
      ],
      "name": "SetStableReceiver",
      "type": "event"
    },
    {
      "inputs": [],
      "name": "acceptOwnership",
      "outputs": [],
      "stateMutability": "nonpayable",
      "type": "function"
    },
    {
      "inputs": [
        {
          "internalType": "address",
          "name": "sender",
          "type": "address"
        },
        {
          "internalType": "uint256",
          "name": "amount",
          "type": "uint256"
        },
        {
          "internalType": "address",
          "name": "to",
          "type": "address"
        }
      ],
      "name": "forward",
      "outputs": [],
      "stateMutability": "nonpayable",
      "type": "function"
    },
    {
      "inputs": [
        {
          "internalType": "address",
          "name": "_owner",
          "type": "address"
        },
        {
          "internalType": "address",
          "name": "_stableReceiver",
          "type": "address"
        },
        {
          "internalType": "contract IERC20",
          "name": "_usdlr",
          "type": "address"
        },
        {
          "internalType": "uint256",
          "name": "_minAmount",
          "type": "uint256"
        }
      ],
      "name": "initialize",
      "outputs": [],
      "stateMutability": "nonpayable",
      "type": "function"
    },
    {
      "inputs": [],
      "name": "minAmount",
      "outputs": [
        {
          "internalType": "uint256",
          "name": "",
          "type": "uint256"
        }
      ],
      "stateMutability": "view",
      "type": "function"
    },
    {
      "inputs": [],
      "name": "owner",
      "outputs": [
        {
          "internalType": "address",
          "name": "",
          "type": "address"
        }
      ],
      "stateMutability": "view",
      "type": "function"
    },
    {
      "inputs": [],
      "name": "pendingOwner",
      "outputs": [
        {
          "internalType": "address",
          "name": "",
          "type": "address"
        }
      ],
      "stateMutability": "view",
      "type": "function"
    },
    {
      "inputs": [],
      "name": "renounceOwnership",
      "outputs": [],
      "stateMutability": "nonpayable",
      "type": "function"
    },
    {
      "inputs": [
        {
          "internalType": "uint256",
          "name": "_minAmount",
          "type": "uint256"
        }
      ],
      "name": "setMinAmount",
      "outputs": [],
      "stateMutability": "nonpayable",
      "type": "function"
    },
    {
      "inputs": [
        {
          "internalType": "address",
          "name": "_stableReceiver",
          "type": "address"
        }
      ],
      "name": "setStableReceiver",
      "outputs": [],
      "stateMutability": "nonpayable",
      "type": "function"
    },
    {
      "inputs": [],
      "name": "stableReceiver",
      "outputs": [
        {
          "internalType": "address",
          "name": "",
          "type": "address"
        }
      ],
      "stateMutability": "view",
      "type": "function"
    },
    {
      "inputs": [
        {
          "internalType": "address",
          "name": "newOwner",
          "type": "address"
        }
      ],
      "name": "transferOwnership",
      "outputs": [],
      "stateMutability": "nonpayable",
      "type": "function"
    },
    {
      "inputs": [],
      "name": "usdlr",
      "outputs": [
        {
          "internalType": "contract IERC20",
          "name": "",
          "type": "address"
        }
      ],
      "stateMutability": "view",
      "type": "function"
    }
  ],
  "transactionHash": "0x167a682c46b1765fa7d5624cc78a105a5a4bea2ac51e6d79d73e94dc4078ea63",
  "args": [],
  "numDeployments": 1,
  "solcInputHash": "fddc79f57195e51af7dea63ad7648095",
  "bytecode": "0x608060405234801561001057600080fd5b50610869806100206000396000f3fe608060405234801561001057600080fd5b50600436106100a45760003560e01c806325d4147f146100a9578063715018a6146100be57806379ba5097146100c6578063897b0637146100ce5780638da5cb5b146100e15780639b2cb5d8146100ff578063cf756fdf14610116578063e30c397814610129578063e6e55ae914610131578063ed8dea7714610144578063f0c84ccb14610157578063f2fde38b1461016a575b600080fd5b6100bc6100b736600461072d565b61017d565b005b6100bc6101cd565b6100bc6101e1565b6100bc6100dc366004610751565b610229565b6100e9610236565b6040516100f6919061076a565b60405180910390f35b61010860025481565b6040519081526020016100f6565b6100bc61012436600461077e565b610251565b6100e9610382565b6100bc61013f3660046107cf565b61038d565b6001546100e9906001600160a01b031681565b6000546100e9906001600160a01b031681565b6100bc61017836600461072d565b610504565b610185610575565b600080546001600160a01b0319166001600160a01b038316908117825560405190917f54e7b02d3c0bfd002b185fc6b44267bbdc47f1296875d2a4690d7ca3fe32b49b91a250565b6101d5610575565b6101df60006105a7565b565b33806101eb610382565b6001600160a01b03161461021d578060405163118cdaa760e01b8152600401610214919061076a565b60405180910390fd5b610226816105a7565b50565b610231610575565b600255565b6000806102416105ce565b546001600160a01b031692915050565b600061025b6105f2565b805490915060ff600160401b82041615906001600160401b03166000811580156102825750825b90506000826001600160401b0316600114801561029e5750303b155b9050811580156102ac575080155b156102ca5760405163f92ee8a960e01b815260040160405180910390fd5b84546001600160401b031916600117855583156102f357845460ff60401b1916600160401b1785555b600080546001600160a01b03808b166001600160a01b03199283161790925560018054928a1692909116919091179055600286905561033189610616565b831561037757845460ff60401b19168555604051600181527fc7f505b2f371ae2175ee4913f4499e1f2633a7b5936321eed1cdaeb6115181d29060200160405180910390a15b505050505050505050565b600080610241610627565b6002548210156103be57600254604051630a3e6c5d60e41b8152610214918491600401918252602082015260400190565b6001546040516323b872dd60e01b81526001600160a01b03858116600483015230602483015260448201859052909116906323b872dd906064016020604051808303816000875af1158015610417573d6000803e3d6000fd5b505050506040513d601f19601f8201168201806040525081019061043b9190610811565b5060015460005460405163a9059cbb60e01b81526001600160a01b0391821660048201526024810185905291169063a9059cbb906044016020604051808303816000875af1158015610491573d6000803e3d6000fd5b505050506040513d601f19601f820116820180604052508101906104b59190610811565b506000546040518381526001600160a01b0383811692811691908616907fe1c779fa040aac9bdf4ef4fecc590ef8ad7d9949bf5aa7579cf275b411d41f0a9060200160405180910390a4505050565b61050c610575565b6000610516610627565b80546001600160a01b0319166001600160a01b038416908117825590915061053c610236565b6001600160a01b03167f38d16b8cac22d99fc7c124b9cd0de2d3fa1faef420bfe791d8c362d765e2270060405160405180910390a35050565b3361057e610236565b6001600160a01b0316146101df573360405163118cdaa760e01b8152600401610214919061076a565b60006105b1610627565b80546001600160a01b031916815590506105ca8261064b565b5050565b7f9016d09d72d40fdae2fd8ceac6b6234c7706214fd39c1cd1e609a0528c19930090565b7ff0c57e16840df040f15088dc2f81fe391c3923bec73e23a9662efc9c229c6a0090565b61061e6106a7565b610226816106cc565b7f237e158222e3e6968b72b9db0d8043aacf074ad9f650f0d1606b4d82ee432c0090565b60006106556105ce565b80546001600160a01b038481166001600160a01b031983168117845560405193945091169182907f8be0079c531659141344cd1fd0a4f28419497f9722a3daafe3b4186f6b6457e090600090a3505050565b6106af6106fe565b6101df57604051631afcd79f60e31b815260040160405180910390fd5b6106d46106a7565b6001600160a01b03811661021d576000604051631e4fbdf760e01b8152600401610214919061076a565b60006107086105f2565b54600160401b900460ff16919050565b6001600160a01b038116811461022657600080fd5b60006020828403121561073f57600080fd5b813561074a81610718565b9392505050565b60006020828403121561076357600080fd5b5035919050565b6001600160a01b0391909116815260200190565b6000806000806080858703121561079457600080fd5b843561079f81610718565b935060208501356107af81610718565b925060408501356107bf81610718565b9396929550929360600135925050565b6000806000606084860312156107e457600080fd5b83356107ef81610718565b925060208401359150604084013561080681610718565b809150509250925092565b60006020828403121561082357600080fd5b8151801515811461074a57600080fdfea26469706673582212203a1939d91e9be596c7de78b5de62c2d5128bda747c5231866e3b84da52380aca64736f6c63430008170033",
  "devdoc": {
    "errors": {
      "InvalidInitialization()": [
        {
          "details": "The contract is already initialized."
        }
      ],
      "NotInitializing()": [
        {
          "details": "The contract is not initializing."
        }
      ],
      "OwnableInvalidOwner(address)": [
        {
          "details": "The owner is not a valid owner account. (eg. `address(0)`)"
        }
      ],
      "OwnableUnauthorizedAccount(address)": [
        {
          "details": "The caller account is not authorized to perform an operation."
        }
      ]
    },
    "events": {
      "Initialized(uint64)": {
        "details": "Triggered when the contract has been initialized or reinitialized."
      }
    },
    "kind": "dev",
    "methods": {
      "acceptOwnership()": {
        "details": "The new owner accepts the ownership transfer."
      },
      "forward(address,uint256,address)": {
        "details": "User approves USDLR to this contract, then calls this function to forward the USDLR to the stableReceiver",
        "params": {
          "amount": "The amount of USDC to forward",
          "sender": "The address that sent the USDC, usually the 4337 wallet",
          "to": "The address to send the USDC to"
        }
      },
      "owner()": {
        "details": "Returns the address of the current owner."
      },
      "pendingOwner()": {
        "details": "Returns the address of the pending owner."
      },
      "renounceOwnership()": {
        "details": "Leaves the contract without owner. It will not be possible to call `onlyOwner` functions. Can only be called by the current owner. NOTE: Renouncing ownership will leave the contract without an owner, thereby disabling any functionality that is only available to the owner."
      },
      "transferOwnership(address)": {
        "details": "Starts the ownership transfer of the contract to a new account. Replaces the pending transfer if there is one. Can only be called by the current owner."
      }
    },
    "version": 1
  },
  "userdoc": {
    "kind": "user",
    "methods": {},
    "version": 1
  },
  "storageLayout": {
    "storage": [
      {
        "astId": 1663,
        "contract": "src/EdgelessReceiver.sol:EdgelessReceiver",
        "label": "stableReceiver",
        "offset": 0,
        "slot": "0",
        "type": "t_address"
      },
      {
        "astId": 1666,
        "contract": "src/EdgelessReceiver.sol:EdgelessReceiver",
        "label": "usdlr",
        "offset": 0,
        "slot": "1",
        "type": "t_contract(IERC20)1361"
      },
      {
        "astId": 1668,
        "contract": "src/EdgelessReceiver.sol:EdgelessReceiver",
        "label": "minAmount",
        "offset": 0,
        "slot": "2",
        "type": "t_uint256"
      }
    ],
    "types": {
      "t_address": {
        "encoding": "inplace",
        "label": "address",
        "numberOfBytes": "20"
      },
      "t_contract(IERC20)1361": {
        "encoding": "inplace",
        "label": "contract IERC20",
        "numberOfBytes": "20"
      },
      "t_uint256": {
        "encoding": "inplace",
        "label": "uint256",
        "numberOfBytes": "32"
      }
    }
  }
}