{
  "address": "0x9841455321BFb14dD11F04C9Ca34817d64eA534a",
  "abi": [
    {
      "inputs": [],
      "name": "InvalidInitialization",
      "type": "error"
    },
    {
      "inputs": [],
      "name": "NotInitializing",
      "type": "error"
    },
    {
      "inputs": [],
      "name": "OnlyStableMinter",
      "type": "error"
    },
    {
      "inputs": [
        {
          "internalType": "address",
          "name": "owner",
          "type": "address"
        }
      ],
      "name": "OwnableInvalidOwner",
      "type": "error"
    },
    {
      "inputs": [
        {
          "internalType": "address",
          "name": "account",
          "type": "address"
        }
      ],
      "name": "OwnableUnauthorizedAccount",
      "type": "error"
    },
    {
      "anonymous": false,
      "inputs": [
        {
          "indexed": false,
          "internalType": "uint64",
          "name": "version",
          "type": "uint64"
        }
      ],
      "name": "Initialized",
      "type": "event"
    },
    {
      "anonymous": false,
      "inputs": [
        {
          "indexed": true,
          "internalType": "address",
          "name": "stableMinter",
          "type": "address"
        },
        {
          "indexed": true,
          "internalType": "address",
          "name": "to",
          "type": "address"
        },
        {
          "indexed": false,
          "internalType": "uint256",
          "name": "amount",
          "type": "uint256"
        }
      ],
      "name": "Mint",
      "type": "event"
    },
    {
      "anonymous": false,
      "inputs": [
        {
          "indexed": true,
          "internalType": "address",
          "name": "previousOwner",
          "type": "address"
        },
        {
          "indexed": true,
          "internalType": "address",
          "name": "newOwner",
          "type": "address"
        }
      ],
      "name": "OwnershipTransferStarted",
      "type": "event"
    },
    {
      "anonymous": false,
      "inputs": [
        {
          "indexed": true,
          "internalType": "address",
          "name": "previousOwner",
          "type": "address"
        },
        {
          "indexed": true,
          "internalType": "address",
          "name": "newOwner",
          "type": "address"
        }
      ],
      "name": "OwnershipTransferred",
      "type": "event"
    },
    {
      "anonymous": false,
      "inputs": [
        {
          "indexed": true,
          "internalType": "address",
          "name": "stableMinter",
          "type": "address"
        }
      ],
      "name": "SetStableMinter",
      "type": "event"
    },
    {
      "inputs": [],
      "name": "acceptOwnership",
      "outputs": [],
      "stateMutability": "nonpayable",
      "type": "function"
    },
    {
      "inputs": [
        {
          "internalType": "address",
          "name": "_owner",
          "type": "address"
        },
        {
          "internalType": "contract IERC20",
          "name": "_usdlr",
          "type": "address"
        },
        {
          "internalType": "address",
          "name": "_stableMinter",
          "type": "address"
        }
      ],
      "name": "initialize",
      "outputs": [],
      "stateMutability": "nonpayable",
      "type": "function"
    },
    {
      "inputs": [
        {
          "internalType": "address",
          "name": "to",
          "type": "address"
        },
        {
          "internalType": "uint256",
          "name": "amount",
          "type": "uint256"
        }
      ],
      "name": "mint",
      "outputs": [],
      "stateMutability": "nonpayable",
      "type": "function"
    },
    {
      "inputs": [],
      "name": "owner",
      "outputs": [
        {
          "internalType": "address",
          "name": "",
          "type": "address"
        }
      ],
      "stateMutability": "view",
      "type": "function"
    },
    {
      "inputs": [],
      "name": "pendingOwner",
      "outputs": [
        {
          "internalType": "address",
          "name": "",
          "type": "address"
        }
      ],
      "stateMutability": "view",
      "type": "function"
    },
    {
      "inputs": [],
      "name": "renounceOwnership",
      "outputs": [],
      "stateMutability": "nonpayable",
      "type": "function"
    },
    {
      "inputs": [
        {
          "internalType": "address",
          "name": "_stableMinter",
          "type": "address"
        }
      ],
      "name": "setStableMinter",
      "outputs": [],
      "stateMutability": "nonpayable",
      "type": "function"
    },
    {
      "inputs": [],
      "name": "stableMinter",
      "outputs": [
        {
          "internalType": "address",
          "name": "",
          "type": "address"
        }
      ],
      "stateMutability": "view",
      "type": "function"
    },
    {
      "inputs": [
        {
          "internalType": "address",
          "name": "newOwner",
          "type": "address"
        }
      ],
      "name": "transferOwnership",
      "outputs": [],
      "stateMutability": "nonpayable",
      "type": "function"
    },
    {
      "inputs": [],
      "name": "usdlr",
      "outputs": [
        {
          "internalType": "contract IERC20",
          "name": "",
          "type": "address"
        }
      ],
      "stateMutability": "view",
      "type": "function"
    }
  ],
  "transactionHash": "0x81aaae95c78f020a2c20d12133907c3a0818a88d0ff091df45ecb4184f788abc",
  "args": [],
  "numDeployments": 1,
  "solcInputHash": "04a7288d7e0c9e58b9e06e72f9f7d072",
  "bytecode": "0x608060405234801561001057600080fd5b506107d7806100206000396000f3fe608060405234801561001057600080fd5b506004361061008e5760003560e01c80631f58c8081461009357806340c10f19146100a857806342cf51ec146100bb578063715018a6146100e457806379ba5097146100ec5780638da5cb5b146100f4578063c0c53b8b146100fc578063e30c39781461010f578063ed8dea7714610117578063f2fde38b1461012a575b600080fd5b6100a66100a13660046106d0565b61013d565b005b6100a66100b63660046106f4565b61018f565b6001546100ce906001600160a01b031681565b6040516100db9190610720565b60405180910390f35b6100a66102fa565b6100a661030e565b6100ce610356565b6100a661010a366004610734565b610371565b6100ce61049c565b6000546100ce906001600160a01b031681565b6100a66101383660046106d0565b6104a7565b610145610518565b600180546001600160a01b0319166001600160a01b0383169081179091556040517f7b1776e29acb40f0aa17867bb4197be1024ca5679eb313040b6a239f7f3889d790600090a250565b6001546001600160a01b031633146101ba576040516308b0b16960e41b815260040160405180910390fd5b6000546001546040516323b872dd60e01b81526001600160a01b039182166004820152306024820152604481018490529116906323b872dd906064016020604051808303816000875af1158015610215573d6000803e3d6000fd5b505050506040513d601f19601f82011682018060405250810190610239919061077f565b5060005460405163a9059cbb60e01b81526001600160a01b038481166004830152602482018490529091169063a9059cbb906044016020604051808303816000875af115801561028d573d6000803e3d6000fd5b505050506040513d601f19601f820116820180604052508101906102b1919061077f565b506001546040518281526001600160a01b038481169216907fab8530f87dc9b59234c4623bf917212bb2536d647574c8e7e5da92c2ede0c9f89060200160405180910390a35050565b610302610518565b61030c600061054a565b565b338061031861049c565b6001600160a01b03161461034a578060405163118cdaa760e01b81526004016103419190610720565b60405180910390fd5b6103538161054a565b50565b600080610361610571565b546001600160a01b031692915050565b600061037b610595565b805490915060ff600160401b82041615906001600160401b03166000811580156103a25750825b90506000826001600160401b031660011480156103be5750303b155b9050811580156103cc575080155b156103ea5760405163f92ee8a960e01b815260040160405180910390fd5b84546001600160401b0319166001178555831561041357845460ff60401b1916600160401b1785555b600080546001600160a01b03808a166001600160a01b031992831617909255600180549289169290911691909117905561044c886105b9565b831561049257845460ff60401b19168555604051600181527fc7f505b2f371ae2175ee4913f4499e1f2633a7b5936321eed1cdaeb6115181d29060200160405180910390a15b5050505050505050565b6000806103616105ca565b6104af610518565b60006104b96105ca565b80546001600160a01b0319166001600160a01b03841690811782559091506104df610356565b6001600160a01b03167f38d16b8cac22d99fc7c124b9cd0de2d3fa1faef420bfe791d8c362d765e2270060405160405180910390a35050565b33610521610356565b6001600160a01b03161461030c573360405163118cdaa760e01b81526004016103419190610720565b60006105546105ca565b80546001600160a01b0319168155905061056d826105ee565b5050565b7f9016d09d72d40fdae2fd8ceac6b6234c7706214fd39c1cd1e609a0528c19930090565b7ff0c57e16840df040f15088dc2f81fe391c3923bec73e23a9662efc9c229c6a0090565b6105c161064a565b6103538161066f565b7f237e158222e3e6968b72b9db0d8043aacf074ad9f650f0d1606b4d82ee432c0090565b60006105f8610571565b80546001600160a01b038481166001600160a01b031983168117845560405193945091169182907f8be0079c531659141344cd1fd0a4f28419497f9722a3daafe3b4186f6b6457e090600090a3505050565b6106526106a1565b61030c57604051631afcd79f60e31b815260040160405180910390fd5b61067761064a565b6001600160a01b03811661034a576000604051631e4fbdf760e01b81526004016103419190610720565b60006106ab610595565b54600160401b900460ff16919050565b6001600160a01b038116811461035357600080fd5b6000602082840312156106e257600080fd5b81356106ed816106bb565b9392505050565b6000806040838503121561070757600080fd5b8235610712816106bb565b946020939093013593505050565b6001600160a01b0391909116815260200190565b60008060006060848603121561074957600080fd5b8335610754816106bb565b92506020840135610764816106bb565b91506040840135610774816106bb565b809150509250925092565b60006020828403121561079157600080fd5b815180151581146106ed57600080fdfea2646970667358221220c04154af74c5ac8270da018840461a2f51af86e668dd2579c89d5a06e6061c0664736f6c63430008170033",
  "devdoc": {
    "errors": {
      "InvalidInitialization()": [
        {
          "details": "The contract is already initialized."
        }
      ],
      "NotInitializing()": [
        {
          "details": "The contract is not initializing."
        }
      ],
      "OwnableInvalidOwner(address)": [
        {
          "details": "The owner is not a valid owner account. (eg. `address(0)`)"
        }
      ],
      "OwnableUnauthorizedAccount(address)": [
        {
          "details": "The caller account is not authorized to perform an operation."
        }
      ]
    },
    "events": {
      "Initialized(uint64)": {
        "details": "Triggered when the contract has been initialized or reinitialized."
      }
    },
    "kind": "dev",
    "methods": {
      "acceptOwnership()": {
        "details": "The new owner accepts the ownership transfer."
      },
      "initialize(address,address,address)": {
        "params": {
          "_owner": "The owner of the contract",
          "_stableMinter": "The stable minter contract",
          "_usdlr": "The USDLR token"
        }
      },
      "mint(address,uint256)": {
        "details": "Stable Minter mints USDLR, calls approve on USDLR to this contract, then calls this function to send the USDLR to the user. We need this second minter contract here for legal reasons?",
        "params": {
          "amount": "The amount of USDLR to mint",
          "to": "The address to send the USDLR to"
        }
      },
      "owner()": {
        "details": "Returns the address of the current owner."
      },
      "pendingOwner()": {
        "details": "Returns the address of the pending owner."
      },
      "renounceOwnership()": {
        "details": "Leaves the contract without owner. It will not be possible to call `onlyOwner` functions. Can only be called by the current owner. NOTE: Renouncing ownership will leave the contract without an owner, thereby disabling any functionality that is only available to the owner."
      },
      "setStableMinter(address)": {
        "params": {
          "_stableMinter": "The new stable minter contract"
        }
      },
      "transferOwnership(address)": {
        "details": "Starts the ownership transfer of the contract to a new account. Replaces the pending transfer if there is one. Can only be called by the current owner."
      }
    },
    "version": 1
  },
  "userdoc": {
    "kind": "user",
    "methods": {
      "initialize(address,address,address)": {
        "notice": "Initialize the contract"
      },
      "setStableMinter(address)": {
        "notice": "Set the stable minter contract"
      }
    },
    "version": 1
  },
  "storageLayout": {
    "storage": [
      {
        "astId": 1541,
        "contract": "src/EdgelessMinter.sol:EdgelessMinter",
        "label": "usdlr",
        "offset": 0,
        "slot": "0",
        "type": "t_contract(IERC20)1361"
      },
      {
        "astId": 1543,
        "contract": "src/EdgelessMinter.sol:EdgelessMinter",
        "label": "stableMinter",
        "offset": 0,
        "slot": "1",
        "type": "t_address"
      }
    ],
    "types": {
      "t_address": {
        "encoding": "inplace",
        "label": "address",
        "numberOfBytes": "20"
      },
      "t_contract(IERC20)1361": {
        "encoding": "inplace",
        "label": "contract IERC20",
        "numberOfBytes": "20"
      }
    }
  }
}